:060000000A128A11122809
:10000800FE00030EF0000408F1000A08F200831253
:1000180003137F08F3000A128A15502E0A128A1158
:1000280015288313EC30FD000D30FE00EE30FF0084
:10003800E83084000A128A151E260A128A117030C6
:10004800FD000D30FE00F930FF00693084000A120F
:100058008A151E260A128A11A0308400E8300A1276
:100068008A1508260A128A116030840069300A123B
:100078008A150826F601F701F801F90183010A1229
:100088008A11CD2A831203132F08E5002E08E400F5
:100098000230E007003003180130E1070030031890
:1000A8000130E207003003180130E3078316031319
:1000B8005C0983120313B000831603135D098312CE
:1000C8000313B100B00A0319B10A60083007B80079
:1000D80061080318610A3107B9006508803AB00061
:1000E8006C08803A3002031D7B286B0864020318F1
:1000F800BD28053083120313A0000030A1006A0850
:10010800A3006908A2000A128A1198270A128A1104
:10011800831203132108A9002008A8000330AA00AD
:100128000030AB000A128A159C260A128A11831223
:1001380003132908803AB0003908803A3002031DB9
:10014800A728380828020318BD2883120313650856
:10015800803AB0006E08803A3002031DB5286D0859
:1001680064020318BD28831203136508EE006408AF
:10017800ED00831203136C08803AB0006508803ADA
:100188003002031DC92864086B020318E928831686
:1001980003136B08803A83120313B0006508803A92
:1001A8003002031DDB286408831603136A02031850
:1001B800E92883120313650883160313EB008312DF
:1001C8000313640883160313EA0083120313390820
:1001D800803AFF0080307F02031DF428FB3038028C
:1001E800031C322A831203136C08803AB000650896
:1001F800803A3002031D022964086B020318322A70
:10020800831203136808031D322A0530A00000304A
:10021800A1006A08A3006908A2000A128A11982797
:100228000A128A11831203132108A9002008A800C2
:100238000330AA000030AB000A128A159C260A1265
:100248008A11831203132908803AB0003908803ACA
:100258003002031D3129380828020318322A0130D8
:1002680083120313B0003008E800831603135C09F7
:1002780083120313B000831603135D09831203135B
:10028800B100B00A0319B10A60083007E900610833
:100298000318610A3107EA00630883160313DF00B5
:1002A80083120313620883160313DE0083120313F9
:1002B800610883160313DD00831203136008831695
:1002C8000313DC00780803199729F8018312031334
:1002D800B601B7013708803AFF0080307F02031D5E
:1002E80077290A3036020318972983120313360830
:1002F800B0003007B43E8400690883138000840A84
:100308006A0880000130B6070318B70A0030B7073B
:100318003708803AFF0080307F02031D95290A3094
:100328003602031C7929831203136F080319A229C3
:10033800EF010130B0003008F8000800B401B50141
:10034800BA01BB013B08803AFF0080307F02031DE1
:10035800AF2909303A020318EA29831203133A082D
:10036800B0003007023EB43E840083130008B10099
:10037800840A0008B2003A08B3003307B43E840088
:1003880031088000840A320880003A08B00030073B
:10039800B43E84000008B100840A0008B2003108A5
:1003A800B4070318B50A3208B5070130BA070318AD
:1003B800BB0A0030BB073B08803AFF0080307F0251
:1003C800031DE82909303A02031CB12983120313DB
:1003D8006A0883160313C700831203136908831678
:1003E8000313C600460883120313B4070318B50A9B
:1003F80083160313470883120313B5070A30A000B6
:100408000030A1003508A3003408A2000A128A159A
:1004180077270A128A11831203132108B5002008CE
:10042800B4003408A0003508A100A201A3010030DF
:10043800A7000030A600EA30A5006030A4000A1228
:100448008A11D3250A128A11831203132108E7009F
:100458002008E6000130B0003008F70083120313CB
:100468006508803AB0006C08803A3002031D3E2AC5
:100478006B0864020318902A831203136803031D90
:10048800902AE8016D09B0006E09B100B00A03199D
:10049800B10A831603136A088312031330078316FD
:1004A8000313E6006B0803186B0A83120313310762
:1004B80083160313E700023083120313A0000030F1
:1004C800A10083160313670883120313A30083167E
:1004D8000313660883120313A2000A128A119827CD
:1004E8000A128A11831203136D082007EB006E08A5
:1004F80003186E0A2107EC006C0883160313EB003F
:10050800831203136B0883160313EA008312031381
:100518006C08EE006B08ED00831203133908803A6B
:10052800FF0089307F02031D9B2AC5303802031C57
:100538000800123083120313EB000230EC00003085
:1005480083160313EA000230EB0000308312031312
:10055800ED000230EE00630883160313DF008312F8
:100568000313620883160313DE0083120313610862
:1005780083160313DD008312031360088316031325
:10058800DC00013083120313B0003008EF00F801DB
:1005980008000A128A1162260A128A11013083168B
:1005A8000313E8000030E90042308400D23083129F
:1005B8000313BC000408BD000A30BE003C088400D8
:1005C80083130008BF00BC0A3D0884003F08800070
:1005D800BD0ABE0BE22A4C308400C830BC000408B7
:1005E800BD000A30BE003C08840083130008BF0029
:1005F800BC0A3D0884003F088000BD0ABE0BF72AEC
:10060800DA01DB01312D00308312A000A1000A12AB
:100618008A15E5260A128A11831203132108831604
:100628000313E50083120313200883160313E40061
:100638006508803AFF0080307F02031D252B653056
:100648006402031C312D0230392B65088312031311
:10065800AF0083160313640883120313AE000A1253
:100668008A1146200A128A11033083160313E80000
:100678000030E900312D7703031D2D2DF7010130DE
:100688000A128A15B5270A128A110B30831203132E
:10069800BD006130BC00BC0B4F2BBD0B4F2B542B46
:1006A80080300A128A15B5270A128A1102300A12F6
:1006B8008A15BF260A128A11153083120313BE0049
:1006C8004B30BD00BD30BC00BC0B682BBD0B682B8C
:1006D800BE0B682B6F2B01300A128A15B5270A1238
:1006E8008A110B3083120313BD006130BC00BC0BB0
:1006F8007B2BBD0B7B2B802B80300A128A15B527EC
:100708000A128A11831203135A08BC003C07423E9E
:100718008400660883138000840A670880005A08EA
:10072800BC003C074C3E840069088000840A6A08C3
:1007380080000130DA070318DB0A0030DB075B08AA
:10074800803AFF0080307F02031DAC2B05305A022F
:10075800031CD82C83120313D601D701D801D90161
:10076800DC01DD015D08803AFF0080307F02031D57
:10077800BF2B05305C020318F52B831203135C08AA
:10078800BC003C07423E840083130008BD00840A75
:100798000008BE003D08D6070318D70A3E08D70749
:1007A8005C08BC003C074C3E84000008BD00840A7D
:1007B8000008BE003D08D8070318D90A3E08D90723
:1007C8000130DC070318DD0A0030DD075D08803AD8
:1007D800FF0080307F02031DF32B05305C02031CF1
:1007E800C12B053083120313A0000030A100570865
:1007F800A3005608A2000A128A1198270A128A1121
:10080800831203132108DF002008DE000530A00052
:100818000030A1005908A3005808A2000A128A1142
:1008280098270A128A11831203132108C10020088D
:10083800C00027300A128A15BF260A128A118312AD
:1008480003136708A8006608A7000A128A1136274A
:100858000A128A11C0300A128A15B5270A128A119B
:100868003E300A128A15BF260A128A118312031310
:100878006A08A8006908A7000A128A1136270A120E
:100888008A11293083120313BE009630BD007E30D2
:10089800BC00BC0B4D2CBD0B4D2CBE0B4D2C0000D1
:1008A80001300A128A15B5270A128A110B308312F1
:1008B8000313BD006130BC00BC0B602CBD0B602C69
:1008C800652C80300A128A15B5270A128A118312FC
:1008D80003135F08803AFF0080307F02031D762CE7
:1008E8003C305E0203187A2C36308A2C83120313AC
:1008F8005F08803AFF0080307F02031D852C653039
:100908005E02031C892C2D308A2C0D300A128A15A0
:10091800BF260A128A11C0300A128A15B5270A1290
:100928008A1123300A128A15BF260A128A118312E5
:1009380003135F08A8005E08A7000A128A11362769
:100948000A128A11831203135F08803AFF0080306D
:100958007F02031DB12C3C305E02031CC02C8312A5
:1009680003135F08803AFF0080307F02031DBE2C0E
:1009780065305E02031CC22C0130C32C00300A1201
:100988008A11D2260A128A11831203135F08F5000E
:100998005E08F4000A128A1510270A128A118312B7
:1009A8000313DA01DB012D2D27300A128A15BF2621
:1009B8000A128A11831203136708A8006608A700A1
:1009C8000A128A1136270A128A11C0300A128A15A9
:1009D800B5270A128A113E300A128A15BF260A1252
:1009E8008A11831203136A08A8006908A7000A126B
:1009F8008A1136270A128A11831203136708803A6C
:100A0800FF0080307F02031D0B2D3C306602031C63
:100A18001A2D831203136708803AFF0080307F0283
:100A2800031D182D65306602031C1C2D01301D2D79
:100A380000300A128A11D2260A128A11831203136D
:100A48006708F5006608F4000A128A1510270A12CA
:100A58008A1183160313E801E90183160313690851
:100A6800003A0319382D312D6808013A0319072B6C
:100A7800033A0319292B013A03193F2B312D312D44
:100A88002C30F4000130F5000A128A1565260A1286
:100A98008A1130300A128A153D260A128A112C3022
:100AA800F4000130F5000A128A1565260A128A1127
:100AB80030300A128A153D260A128A112C30F400A9
:100AC8000130F5000A128A1565260A128A1130309B
:100AD8000A128A153D260A128A112C30F4000130B8
:100AE800F5000A128A1565260A128A1120300A12A0
:100AF8008A153D260A128A112C30F4000130F500BF
:100B08000A128A1565260A128A110C300A128A15E9
:100B1800B5270A128A112C30F4000130F5000A12A8
:100B28008A1565260A128A1104300A128A15B52711
:100B38000A128A112C30F4000130F5000A128A15C5
:100B480065260A128A1185300A128A15B5270A12F3
:100B58008A112C30F4000130F5000A128A15652636
:100B68000A128A1106300A128A15B5270A128A1142
:100B78002C30F4000130F5000A128A1565260A1295
:100B88008A1101300A128A15B5270A128A112C30E7
:100B9800F4000130F5000A128A1565260800831250
:100BA8000313A901A31FE52DA009A109A209A309FF
:100BB800A00A0319A10A0319A20A0319A30AA90181
:100BC800A90AA71FF62DA409A509A609A709A40A19
:100BD8000319A50A0319A60A0319A70A0130F40084
:100BE8007408A9060030AD000030AC000030AB003E
:100BF8000030AA00230822042104200403194B2EE4
:100C0800A801A80AA31B162E0130F4000310A00D9A
:100C1800A10DA20DA30DF40B0A2E0130F4007408E7
:100C2800A807062E0130F4000310AA0DAB0DAC0D79
:100C3800AD0DF40B182E23082702031D2D2E2208B4
:100C48002602031D2D2E21082502031D2D2E200806
:100C58002402031C3E2E2008A4022108031C210F95
:100C6800A5022208031C220FA6022308031C230F37
:100C7800A7022A1401300310A30CA20CA10CA00C8B
:100C8800FF3E031D3F2E0130A802031D162E290822
:100C98000319592EAA09AB09AC09AD09AA0A031907
:100CA800AB0A0319AC0A0319AD0A2D08A3002C08D6
:100CB800A2002B08A1002A08A0000800831603132D
:100CC80086010A128A1144250A128A116830831291
:100CD8000313AB00E330AA00AA0B702EAB0B702EE7
:100CE800752E01300A128A15B5270A128A110B309F
:100CF80083120313AB006130AA00AA0B812EAB0B41
:100D0800812E862E80300A128A15B5270A128A117A
:100D180018300A128A15BF260A128A11293083123E
:100D28000313AC009630AB007E30AA00AA0B9A2EB3
:100D3800AB0B9A2EAC0B9A2E000001300A128A15C2
:100D4800B5270A128A110B3083120313AB006130E6
:100D5800AA00AA0BAD2EAB0BAD2EB22E0A128A1525
:100D68002B260A128A110A128A15EC250A128A11F0
:100D78000A128A1500268316031386118312031399
:100D8800861183160313871207138713831203131D
:100D98008712071387138B170B1708008312031387
:100DA800A00020080319062FA101A2012208803AF9
:100DB800FF0080307F02031DE32E643021020318F8
:100DC80008008312031386150630F5003030F4004E
:100DD800F40BEC2EF50BEC2E000083120313861196
:100DE8000630F5003030F400F40BF82EF50BF82E31
:100DF8000000013083120313A1070318A20A003070
:100E0800A207DA2E83120313A301A4012408803A4F
:100E1800FF0080307F02031D132F64302302031864
:100E280008008312031386150330F5009730F40089
:100E3800F40B1C2FF50B1C2F212F83120313861183
:100E48000330F5009730F400F40B282FF50B282F0A
:100E58002D2F013083120313A3070318A40A0030AF
:100E6800A4070A2F83120313AB01AC012708280437
:100E78000319722F0A30A0000030A1002808A3002F
:100E88002708A2000A128A1543270A128A11831218
:100E980003132B08A9002907A03E84002008831308
:100EA8008000840A210880000A30A0000030A100D8
:100EB8002808A3002708A2000A128A1577270A1211
:100EC8008A11831203132108A8002008A700013003
:100ED800AB070318AC0A0030AC073A2FFF30AB075A
:100EE8000318AC0AFF30AC072C08AE002B08AD0085
:100EF800AE1B08002D08A9002907A03E8400831313
:100F08000008303EAA002A08F60076080A128A1558
:100F180010260A128A11FF3083120313AD07031833
:100F2800AE0AFF30AE077C2F83120313A501A11F61
:100F3800A42FA009A109A00A0319A10AA501A50ABD
:100F4800A31FAF2FA209A309A20A0319A30A0130FC
:100F5800F4007408A506A601A701200821040319B6
:100F6800E62FA401A40AA11BC52F01300310A00D70
:100F7800A10DFF3E031DBA2F0130F4007408A40729
:100F8800B72F01300310A60DA70DFF3E031DC62F76
:100F980021082302031DD22F20082202031CDB2F65
:100FA8002008A2022108031CA303A302261401306F
:100FB8000310A10CA00CFF3E031DDC2F0130A4027E
:100FC800031DC52F25080319EE2FA609A709A60A90
:100FD8000319A70A2708A1002608A0000800FF3067
:100FE800F4070318F50AFF30F507740A031DF32FF9
:100FF800750A03190800F32F08308A000408840AC8
:1010080082070034FF3452346534613464346934FF
:101018006E3467342E342E342E3400344234503437
:101028004D3420344E346F3472346D3461346C3442
:10103800003457346C346334203444346F346334AC
:1010480074346F3472340034413476346734203465
:10105800423450344D343A3420340034423450341D
:101068004D342034483469346734683400344234A9
:1010780050344D3420344C346F3477340034493490
:0A108800423449343A342034003475
:101BD8008B160800FF34FF340034023401308316BA
:101BE8000313E8000030E9000800583402341234C6
:101BF8000234003402340134831203139F0180300D
:101C0800831603139F00080064008001840A0406F9
:101C1800031900340406092E83120313A60079144D
:101C2800061426080A128A15B52708007E088A00B5
:101C38007F0882001A260A128A158000840A04087E
:101C48007D0603190034FF0A0319FE0A1E2E8316A7
:101C580003138112011681110730810401308400B9
:101C68000A128A1500207A398312031381000B1196
:101C7800080083120313A2000610861022088600AB
:101C880006152C30F4000130F5000A128A15652675
:101C980083120313061108008B1A0B1D582E0A1203
:101CA8008A157A260A128A15730883120313FF000D
:101CB80072088A0071088400700E8300FE0E7E0E82
:101CC800090083120313A001A101A001A101750855
:101CD8002102031D712E7408200203180800013028
:101CE800A0070318A10A0030A1076B2E8B120B1155
:101CF800013084000A128A1500200A128A157A39DE
:101D0800831203138100013083160313E0070318BD
:101D1800E10A0030E1076008610403199A2E0A12EB
:101D28008A15F22583160313E001E1018B160800DA
:101D380083120313AC01AD01281CA82E2A08AC0796
:101D48000318AD0A2B08AD0701300310AA0DAB0D1F
:101D5800FF3E031DA92E01300310A90CA80CFF3E5D
:101D6800031DB02E28082904031DA02E2D08A90044
:101D78002C08A800080083120313A900A701A801D2
:101D88002708290784000A128A1500200A128A15D2
:101D9800003A031908002708290784000A128A153F
:101DA80000200A128A150A128A1510260A128A15A4
:101DB800013083120313A7070318A80A0030A807E5
:101DC800C42E831203132108803AFF0080307F025B
:101DD800031DF02E033020020318F42E0130F52ED7
:101DE80000300138831203139F00E830F4000330F9
:101DF800F5000A128A11F3270A128A1583120313AF
:101E08001F151F19052F1E08A100831603131E088E
:101E180083120313A00008007508803AFF00803081
:101E28007F02031D192F3C3074020318212F8312DF
:101E3800031387120713871708007508803AFF00F5
:101E480080307F02031D2A2F3C307402031C3D2F73
:101E58007508803AFF0080307F02031D352F6530FA
:101E6800740203183D2F8312031387120717871371
:101E780008008312031387160713871308008312B9
:101E88000313200821040319722FF501F50AA11B79
:101E9800592F01300310A00DA10DFF3E031D4E2F39
:101EA8000130F4007408F5074B2F21082302031DA5
:101EB8005F2F20082202031C672F2008A202210896
:101EC800031CA303A30201300310A10CA00CFF3EC6
:101ED800031D682F0130F502031D592F2308A100A7
:101EE8002208A000080083120313A501A6012008F8
:101EF80021040319B02FA401A40AA11B8F2F0130BC
:101F08000310A00DA10DFF3E031D842F0130F40026
:101F18007408A407812F01300310A50DA60DFF3EFC
:101F2800031D902F21082302031D9C2F2008220245
:101F3800031CA52F2008A2022108031CA303A30247
:101F4800251401300310A10CA00CFF3E031DA62F81
:101F58000130A402031D8F2F2608A1002508A00028
:101F6800080083120313A400791CBC2F7910BD2F1D
:101F7800061086102408A2002208A500F030A2004E
:101F88002208A5050F30A200220886052508A20010
:101F98002208860406152C30F4000130F5000A12D8
:101FA8008A1565260A128A15831203130611240856
:101FB800A20003300310A20DFF3E031DDE2F031005
:101FC800220DA3002308A500F030A2002208A505D1
:101FD8000F30A200220886052508A20022088604E0
:101FE80006152C30F4000130F5000A128A15652612
:081FF800831203130611080017
:02400E007A3FF7
:00000001FF
